:0400000009EF06F00E
:100A5A004C6E8A904C5088EC09F012004C6E8A80D9
:080A6A004C5088EC09F0120069
:100A73002020202020202020202020202020202073
:100A830000FF0E49244B6EFF0E4A204C6E4BC045AF
:100A9300F04CC046F0476A486A1200646E72EC0676
:100AA300F055C05BF056C05CF0645061C062F06307
:100AB3006A625E000E635A010E62245D6E000E636D
:100AC300205E6E5EEC08F05B50642412004C6A4DAD
:100AD3006A4CC049F0200E4A6E4D50B5EC08F04DFB
:100AE3002A0F0E4D6478EF05F07AEF05F06AEF05F3
:100AF300F04C2A070E4C6481EF05F083EF05F06993
:100B0300EF05F01200200E2DEC05F0030E4D6E984C
:100B13000EE82EFED74D2EFCD7240E2DEC05F00348
:100B23000E4D6E980EE82EFED74D2EFCD7260E2DB9
:100B3300EC05F0030E4D6E980EE82EFED74D2EFCFD
:100B4300D71200E60E4D6E4E6A000E53EC0CF0D534
:100B53000E4D6E4E6A010E53EC0CF0C40E4D6E4EEC
:100B63006A020E53EC0CF0B30E4D6E4E6A030E5335
:100B7300EC0CF0A20E4D6E4E6A040E53EC0CF09189
:100B83000E4D6E4E6A050E53EC0CF0800E4D6E4EFC
:100B93006A060E53EC0CF0000E4D6E010E4E6E07FE
:100BA3000E53EC0CF012004E6A200E4E60DCEF0583
:100BB300F0DEEF05F0E7EF05F04E5080092DEC0570
:100BC300F0800E2DEC05F0EFEF05F04E50E00F80B6
:100BD300092DEC05F0880E2DEC05F04D6A000E335F
:100BE300EC05F0000E33EC05F04D2A070E4D64FDC5
:100BF300EF05F0FFEF05F0F0EF05F04E2A3F0E4E44
:100C03006406EF06F008EF06F0D6EF05F012007366
:100C13000EF66E0A0EF76E000EF86E01EE00F0107F
:100C2300EE11F00900F5CFEEFFE550E150FAE15186
:100C33000EF66E0D0EF76E000EF86E00EE80F010DD
:100C4300EE77F00900F5CFEEFFE550E150FAE15001
:100C53000EF66E0D0EF76E000EF86E0900F5CF74EA
:100C6300F000EE01F0480EEE6AE806FDE1000EF832
:100C73006E00011BEF0AF0000E516E000E526E0063
:100C83000E536E000E546E49A04AEF06F04CEF0669
:100C9300F054EF06F04D5051264E5052224F505310
:100CA3002250505422D8904D364E364F365036D8B7
:100CB300904C324B324A32493249504A104B104C15
:100CC30010D8A467EF06F069EF06F045EF06F05180
:100CD300C049F052C04AF053C04BF054C04CF0121C
:100CE3000045C049F046C04AF047C04BF048C04CED
:100CF300F02D0E4D6E7F0E4E6E950E4F6E4C0E50B8
:100D03006E3DEC06F0010E4924456E000E4A204666
:100D13006E000E4B20476E000E4C20486E45C057A8
:100D2300F046C058F047C059F048C05AF0120EA020
:100D3300EF06F0D8905A32593258325732E82E9B88
:100D4300EF06F057C055F058C056F01200012020AE
:100D530020202020202020202020202020200020B0
:100D630020202020202020202020202020202000A0
:100D73002020202020202020202020202020202070
:100D83000020202020202020202020202020202080
:100D93002000202020202020202020202020202070
:100DA3002020002020202020202020202020202060
:100DB3002020200020202020202020202020202050
:100DC300202020200080A6E9EF06F0EBEF06F0F1EB
:100DD300EF06F0000E346E010E336E23EF07F08042
:100DE300A8F6EF06F0F8EF06F0FEEF06F0000E347B
:100DF3006E020E336E23EF07F080A203EF07F005B8
:100E0300EF07F00BEF07F0000E346E030E336E2383
:100E1300EF07F080A410EF07F012EF07F018EF07C9
:100E2300F0000E346E040E336E23EF07F080AA1D1C
:100E3300EF07F01FEF07F023EF07F0010E416E23DA
:100E4300EF07F0120053EF07F0D20E4D6E1F0E4E58
:100E53006E060E53EC0CF06AEF07F0DB0E4D6E1FBF
:100E63000E4E6E060E53EC0CF06AEF07F0E40E4DD7
:100E73006E1F0E4E6E060E53EC0CF06AEF07F0ED8C
:100E83000E4D6E1F0E4E6E060E53EC0CF06AEF07FE
:100E9300F0F60E4D6E1F0E4E6E060E53EC0CF06AFE
:100EA300EF07F04450000AD8B44AEF07F0010AD81C
:100EB300B441EF07F0030AD8B438EF07F0010AD8BA
:100EC300B42FEF07F0070AD8B426EF07F06AEF074D
:100ED300F01200936A8A848A940D0E4D6EFC0EE81C
:100EE3002EFED74D2EFCD78A84820E4D6EDE0EE881
:100EF3002EFED74D2EFCD7200E2DEC05F00D0E4DFA
:100F03006EFC0EE82EFED74D2EFCD7200E2DEC05E1
:100F1300F00D0E4D6EFC0EE82EFED74D2EFCD70CB9
:100F23000E2DEC05F00D0E4D6EFC0EE82EFED74D8A
:100F33002EFCD7010E2DEC05F00D0E4D6EFC0EE8C8
:100F43002EFED74D2EFCD7060E2DEC05F00D0E4DC3
:100F53006EFC0EE82EFED74D2EFCD7020E2DEC05AF
:100F6300F00D0E4D6EFC0EE82EFED74D2EFCD71263
:100F730000416A000E406E070E3F6E000E3E6E0487
:100F83000E3D6E0F0E616E000E4FEC05F0656E6543
:100F930050396E3A6A070E616E000E4FEC05F0652C
:100FA3006E6550376E386AE0EF07F00F0E616E0022
:100FB3000E4FEC05F0656E6550396E3A6A39503A5A
:100FC30010D8B4E7EF07F0E9EF07F0D7EF07F0F435
:100FD300EF07F0070E616E000E4FEC05F0656E65CE
:100FE30050376E386A37503810D8B4FBEF07F0FD2E
:100FF300EF07F0EBEF07F0000E366E000E356E00D4
:101003000E3C6E000E3B6E000E346E000E336E12FD
:10101300000E0EC16EA90EC06E010EC26EC282C258
:10102300B216EF08F018EF08F011EF08F0000E52B7
:101033006E000E516ED7504E6E4D6AD6504F6E50A5
:101043006A4D504F10536E4E505010546E000E5652
:101053006E000E556EC350C4CF4DF04E6A4DC04E58
:10106300F04D6A4D26000E4E224D50511A4E5052ED
:101073001A1A0E4D6EF80EE82EFED74D2EFCD70031
:10108300D0554A562A56BE50EF08F0565009E1048F
:101093000E555CD8A050EF08F052EF08F02CEF0883
:1010A300F053505118496E545052184A6E42EC0591
:1010B300F0C26A0F0EC16E1200606A5CBE66EF0872
:1010C300F064EF08F06CEF08F05B6C5C1ED8B05C6A
:1010D3002A010E606E5EBE73EF08F071EF08F077C1
:1010E300EF08F05D6C5E1ED8B05E2A5D505E10D8CE
:1010F300B47EEF08F080EF08F0A4EF08F0010E5F74
:101103006E88EF08F0D8905D365E365F2A5EAE8D4E
:10111300EF08F08FEF08F084EF08F05D505B5C5E42
:10112300505C58D8A098EF08F09AEF08F09EEF08AB
:10113300F05D505B5E5E505C5AD8905E325D325F0C
:101143002E8FEF08F06050D8B4AAEF08F0ACEF0888
:10115300F0B0EF08F05B6C5C1ED8B05C2A5BC05B40
:10116300F05CC05CF012004B6EFAEF08F04B50E6F7
:101173000FD96EDA6A4AC0DFFF1DEF09F04B50D575
:101183000FD96EDA6A4AC0DFFF1DEF09F04B50C476
:101193000FD96EDA6A4AC0DFFF1DEF09F04B50B377
:1011A3000FD96EDA6A4AC0DFFF1DEF09F04B50A278
:1011B3000FD96EDA6A4AC0DFFF1DEF09F04B509179
:1011C3000FD96EDA6A4AC0DFFF1DEF09F04B50807A
:1011D3000FD96EDA6A4AC0DFFF1DEF09F0000E4B2C
:1011E30024D96EDA6A010EDA224AC0DFFF1DEF0945
:1011F300F04950000AD8B4B8EF08F0010AD8B4C0D7
:10120300EF08F0030AD8B4C8EF08F0010AD8B4D045
:10121300EF08F0070AD8B4D8EF08F0010AD8B4E011
:10122300EF08F0030AD8B4E8EF08F0010AD8B4F0E5
:10123300EF08F01DEF09F0120068EC05F03DC0491E
:10124300F04F0E4A6E3F50B5EC08F0706A716A6F4A
:101253006A5EEF09F06F50020DF350010FD96EDA99
:101263006A71506D6E6E6ADE506D1807E1DE506E66
:1012730018D8A43FEF09F041EF09F05DEF09F06FD3
:1012830050020DF350230FD96EDA6A70506D6E6EF3
:101293006ADE506D1807E1DE506E18D8A454EF09CA
:1012A300F056EF09F05DEF09F070C049F0230E4AE4
:1012B3006E7150B5EC08F06F2A6F506B6E6C6A3B21
:1012C300506B5C3C506C58D8A06AEF09F06CEF0986
:1012D300F02CEF09F0712A100E716473EF09F075A9
:1012E300EF09F029EF09F0702A070E70647CEF090B
:1012F300F07EEF09F028EF09F037C049F0610E4A9C
:101303006E3950B5EC08F0A3EC05F012004B6E8A71
:10131300820D0EE82EFED700004BC049F0493A0F6C
:101323000E4916010E49164946494649468A50490F
:1013330018F70B49188A6E4BC049F0050E4A6ED850
:101343009049324A2EA1EF09F0010E4916493A8A13
:10135300504918EF0B49188A6E4BC049F0060E4AE4
:101363006ED89049324A2EB2EF09F0010E49164960
:101373003A49468A504918DF0B49188A6E496A4B25
:10138300AE01D0492A010E4916493A494649468ACF
:10139300504918BF0B49188A6E0D0EE82EFED70070
:1013A300008A928A820D0EE82EFED700004BC049B8
:1013B300F0010E49164946494649468A504918F7ED
:1013C3000B49188A6E4BC049F0D8904932010E4937
:1013D30016493A8A504918EF0B49188A6E4BC0498F
:1013E300F0D8904932D8904932010E4916493A490A
:1013F300468A504918DF0B49188A6E4BC049F0D80A
:10140300904932D8904932D8904932010E49164951
:101413003A494649468A504918BF0B49188A6E0D06
:101423000EE82EFED700008A920D0EE82EFED7009E
:10143300001200700ED36E92680AEC08F06BEC0792
:10144300F084EC05F0D5EC05F0A60E4D6E1F0E4EA4
:101453006E000E53EC0CF0730E4D6E1F0E4E6E02AB
:101463000E53EC0CF0510E4D6E1F0E4E6E030E53C9
:10147300EC0CF0840E4D6E1F0E4E6E050E53EC0CED
:10148300F024EC07F078EF0AF080A44BEF0AF04D5C
:10149300EF0AF05FEF0AF0050E446053EF0AF055D0
:1014A300EF0AF05FEF0AF0442A80B45BEF0AF05DC5
:1014B300EF0AF056EF0AF042EF0AF080A264EF0A57
:1014C300F066EF0AF078EF0AF04450D8B46CEF0AF4
:1014D300F06EEF0AF078EF0AF0440680B274EF0A78
:1014E300F076EF0AF06FEF0AF042EF0AF080AC7D7E
:1014F300EF0AF07FEF0AF046EF0AF0BAEC07F0ECE0
:10150300EF0AF01EEC09F0E4EC06F02DEC0BF0D141
:10151300EF0AF0ECEF0AF0020E736E040E726EBA6D
:101523000EE82EFED7722EFCD7732EFAD700D0EC1E
:10153300EF0AF0030E736E080E726E770EE82EFE3E
:10154300D7722EFCD7732EFAD70000ECEF0AF00403
:101553000E736E0C0E726E340EE82EFED7722EFCD6
:10156300D7732EFAD7ECEF0AF0050E736E0F0E72D7
:101573006EF10EE82EFED7722EFCD7732EFAD7002B
:1015830000ECEF0AF0060E736E130E726EAE0EE8E9
:101593002EFED7722EFCD7732EFAD7ECEF0AF04447
:1015A30050000AD8B48BEF0AF0010AD8B48DEF0AC1
:1015B300F0030AD8B49BEF0AF0010AD8B4A9EF0AE2
:1015C300F0070AD8B4B6EF0AF0010AD8B4C4EF0A98
:1015D300F0ECEF0AF04150D8B4F2EF0AF0F4EF0A5E
:1015E300F083EF0AF0D5EC05F0950E4D6E1F0E4E0D
:1015F3006E010E53EC0CF0620E4D6E1F0E4E6E021A
:101603000E53EC0CF0950E4D6E1F0E4E6E030E53E3
:10161300EC0CF0B70E4D6E1F0E4E6E050E53EC0C18
:10162300F0C60E4D6E1F0E4E6E060E53EC0CF024DC
:10163300EF0BF080AC20EF0BF022EF0BF024EF0B5D
:10164300F07FEF0AF080AA29EF0BF02BEF0BF01BD2
:10165300EF0BF000EF00F001C069F023C06AF03F28
:10166300C001F040C002F03DC023F03EC024F001B1
:101673000E6C6E6CEF0BF06C50020DF350010FD932
:101683006EDA6ADF50676E6C50020DF350230FD988
:101693006EDA6ADF50686E6950656E666A6C500276
:1016A3000DF350010FD96EDA6A65C0DEFF66C0DD47
:1016B300FF6A50656E666A6C50020DF350230FD9B2
:1016C3006EDA6A65C0DEFF66C0DDFF67C069F06879
:1016D300C06AF06C2A6C50656E666A3B50655C3C70
:1016E300506658D8A078EF0BF07AEF0BF03DEF0B74
:1016F300F08EEF0BF03F06D8A04006ACEF0BF03FA7
:101703004A402AACEF0BF03D06D8A03E06ACEF0BE7
:10171300F03D4A3E2AACEF0BF033C065F034C066AF
:10172300F06650000AD8B499EF0BF0ACEF0BF065FC
:1017330050010AD8B47CEF0BF0030AD8B481EF0B45
:10174300F0010AD8B485EF0BF0070AD8B48AEF0B7F
:10175300F0ACEF0BF0405007E1100E3F5CD8B0B592
:10176300EF0BF0B7EF0BF0C2EF0BF03E5009E108BF
:101773000E3D5CD8A0C0EF0BF0C2EF0BF0C4EF0B33
:10178300F0010E416E6B6AEEEF0BF06B50020DF33E
:1017930050010FD96EDA6A3F50DE1807E14050DE80
:1017A30018D8A4D7EF0BF0D9EF0BF0EDEF0BF06BDC
:1017B30050020DF350230FD96EDA6A3D50DE18073D
:1017C300E13E50DE18D8A4E9EF0BF0EBEF0BF0EDA0
:1017D300EF0BF0010E416E6B2A6B50656E666A3B30
:1017E30050655C3C506658D8A0FAEF0BF0FCEF0B49
:1017F300F0C7EF0BF039503F1807E13A504018D8C3
:10180300A406EF0CF008EF0CF052EF0CF037503D4C
:101813001807E138503E18D8A412EF0CF014EF0C5F
:10182300F052EF0CF00F0E616E000E4FEC05F065F9
:101833006E6550396E3A6A070E616E000E4FEC0505
:10184300F0656E6550376E386A31EF0CF00F0E613C
:101853006E000E4FEC05F0656E6550396E3A6A39CD
:10186300503A10D8B438EF0CF03AEF0CF028EF0CE4
:10187300F045EF0CF0070E616E000E4FEC05F065BE
:101883006E6550376E386A37503810D8B44CEF0C49
:10189300F04EEF0CF03CEF0CF0354A362A3B4A3C55
:1018A3002A1200646E010E566E616A97EF0EF04DB8
:1018B300C0F6FF4EC0F7FFF86A010EF76403D008C5
:1018C30000F55005D0F6CFE9FFF7CFEAFFEF5065FB
:1018D3006E4D4A4E2A6550D8A472EF0CF074EF0C8B
:1018E300F077EF0CF0200E656E566A4DC0F6FF4E92
:1018F300C0F7FFF86A010EF76403D00800F550053E
:10190300D0F6CFE9FFF7CFEAFFEF50666E4D4A4EB0
:101913002A6650D8A490EF0CF092EF0CF095EF0CE0
:10192300F0200E666E566A510E65649BEF0CF09DB7
:10193300EF0CF0A5EF0CF0AE0E6524526E536AFF68
:101943000E5322ABEF0CF0E00E6524526E536AFF88
:101953000E532252C069F0510E6664B3EF0CF0B51A
:10196300EF0CF0BDEF0CF0AE0E6624546E556AFF1B
:101973000E5522C3EF0CF0E00E6624546E556AFF39
:101983000E552254C06AF0520E6560CBEF0CF0CDB9
:10199300EF0CF016EF0DF06950050D710EF324F600
:1019A3006E1D0EF420F76E0800F5CF5BF06950054D
:1019B3000D010EF326000EF422710EF324F66E1DB4
:1019C3000EF420F76E0800F5CF5AF06950050D02AA
:1019D3000EF326000EF422710EF324F66E1D0EF4A0
:1019E30020F76E0800F5CF59F06950050D030EF38B
:1019F30026000EF422710EF324F66E1D0EF420F76A
:101A03006E0800F5CF58F06950050D040EF326005B
:101A13000EF422710EF324F66E1D0EF420F76E08F9
:101A230000F5CF57F05DEF0DF06950050D6B0EF328
:101A330024F66E1E0EF420F76E0800F5CF5BF069F6
:101A430050050D010EF326000EF4226B0EF324F65F
:101A53006E1E0EF420F76E0800F5CF5AF06950059C
:101A63000D020EF326000EF4226B0EF324F66E1E07
:101A73000EF420F76E0800F5CF59F06950050D03F9
:101A83000EF326000EF4226B0EF324F66E1E0EF4F4
:101A930020F76E0800F5CF58F06950050D040EF3DA
:101AA30026000EF4226B0EF324F66E1E0EF420F7BE
:101AB3006E0800F5CF57F0520E666063EF0DF065C8
:101AC300EF0DF0AEEF0DF06A50050D710EF324F635
:101AD3006E1D0EF420F76E0800F5CF60F06A500516
:101AE3000D010EF326000EF422710EF324F66E1D83
:101AF3000EF420F76E0800F5CF5FF06A50050D0273
:101B03000EF326000EF422710EF324F66E1D0EF46E
:101B130020F76E0800F5CF5EF06A50050D030EF353
:101B230026000EF422710EF324F66E1D0EF420F738
:101B33006E0800F5CF5DF06A50050D040EF3260024
:101B43000EF422710EF324F66E1D0EF420F76E08C8
:101B530000F5CF5CF0F5EF0DF06A50050D6B0EF359
:101B630024F66E1E0EF420F76E0800F5CF60F06ABF
:101B730050050D010EF326000EF4226B0EF324F62E
:101B83006E1E0EF420F76E0800F5CF5FF06A500565
:101B93000D020EF326000EF4226B0EF324F66E1ED6
:101BA3000EF420F76E0800F5CF5EF06A50050D03C2
:101BB3000EF326000EF4226B0EF324F66E1E0EF4C3
:101BC30020F76E0800F5CF5DF06A50050D040EF3A3
:101BD30026000EF4226B0EF324F66E1E0EF420F78D
:101BE3006E0800F5CF5CF0676A040E6460FCEF0DCD
:101BF300F0FEEF0DF00BEF0EF06450080DF350679D
:101C03002480092DEC05F0615080092DEC05F017B7
:101C1300EF0EF06450080DF3506724E00F80092D98
:101C2300EC05F0615088092DEC05F0626A686A687A
:101C330050570FD96EDA6ADF504F6E67C050F0010C
:101C43000E516E502A28EF0EF0D8905136502E26A2
:101C5300EF0EF051504F140009D8B433EF0EF035A6
:101C6300EF0EF046EF0EF068C04FF0030E4F260163
:101C73000E506E4F2A40EF0EF0D89050364F2E3E46
:101C8300EF0EF050506210626E682A040E68644DC5
:101C9300EF0EF04FEF0EF019EF0EF0636A686A680B
:101CA300505C0FD96EDA6ADF504F6E67C050F00197
:101CB3000E516E502A60EF0EF0D8905136502E5EC2
:101CC300EF0EF051504F140009D8B46BEF0EF06DC6
:101CD300EF0EF07EEF0EF068C04FF0030E4F2601BB
:101CE3000E506E4F2A78EF0EF0D89050364F2E7666
:101CF300EF0EF050506310636E682A040E6864851B
:101D0300EF0EF087EF0EF051EF0EF0625033EC055B
:101D1300F0635033EC05F0672A070E676494EF0E07
:101D2300F096EF0EF0F6EF0DF0612A4DC0F6FF4E80
:101D3300C0F7FFF86A010EF76403D00800F55005F9
:101D4300D0F6CFE9FFF7CFEAFFEF500009D8B4ADE3
:101D5300EF0EF0AFEF0EF0B7EF0EF05650D8A4B57C
:101D6300EF0EF0B7EF0EF059EF0CF0120000000089
:101D730000000000005F00000007000700147F144C
:101D83007F14242A7F2A12231308646236495522BA
:101D9300500005030000001C2241000041221C00EA
:101DA30014083E081408083E0808005030000008D4
:101DB30008080808006060000020100804023E5173
:101DC30049453E00427F4000426151494621414519
:101DD3004B311814127F1027454545393C4A494970
:101DE3003001710905033649494936064949291E17
:101DF3000036360000005636000008142241001455
:101E03001414141400412214080201510906324922
:101E130079413E7E1111117E7F494949363E414148
:101E230041227F4141221C7F494949417F090909D8
:101E3300013E4149497A7F0808087F00417F4100FC
:101E43002040413F017F081422417F404040407FB2
:101E5300020C027F7F0408107F3E4141413E7F090F
:101E63000909063E4151215E7F0919294646494920
:101E7300493101017F01013F4040403F1F20402085
:101E83001F3F4038403F6314081463070870080776
:101E93006151494543007F4141000204081020007D
:101EA30041417F00040201020440404040400001E0
:101EB30002040020545454787F484444383844443E
:101EC3004420384444487F3854545418087E090148
:101ED300020C5252523E7F0804047800447D4000B5
:101EE3002040443D007F1028440000417F40007C97
:101EF300041804787C0804047838444444387C1477
:101F0300141408081414187C7C0804040848545456
:101F13005420043F4440203C4040207C1C2040206F
:101F23001C3C4030403C44281028440C5050503C4A
:101F33004464544C44000836410000007F00000014
:101F430041360800100808100878464146782020DA
:101F5300202020414E55202020202020202000201A
:101F630020202047414D45204F5645522020200038
:101F730042593A202053454241535449414E20206F
:101F8300005374617274202D2053656C6563742053
:101F930020002A2A2A2A2A2A2A2A2A2A2A2A2A2AD2
:101FA3002A2A002A2A2A2A2A534E414B452A2A2A18
:101FB3002A2A2A005265747279202D2053656C6594
:101FC3006374004D656E75202D2045786974005348
:101FD300706565643A20310053706565643A203258
:101FE3000053706565643A20330053706565643A45
:0D1FF30020340053706565643A203500000D
:020000040030CA
:0E000000FF08191EFF8381FF03C003E00340C9
:00000001FF
