:04000000AFEF07F067
:100C0600496E8A904950D6EC09F01200496E8A80E6
:100C16004950D6EC09F01200616E42EC07F052C062
:100C260058F053C059F061505EC05FF0606A5F5E75
:100C3600000E605A010E5F245A6E000E60205B6E35
:100C460018EC09F0585061241200496A4A6A49C0F2
:100C560046F0200E476E4A506FEC09F04A2A0F0EF6
:100C66004A6438EF06F03AEF06F02AEF06F0492A12
:100C7600070E496441EF06F043EF06F029EF06F050
:100C86001200200E03EC06F0030E4A6E980EE82EB4
:100C9600FED74A2EFCD7240E03EC06F0030E4A6E4E
:100CA600980EE82EFED74A2EFCD7260E03EC06F049
:100CB600030E4A6E980EE82EFED74A2EFCD7120077
:100CC700202020202020202020202020202020201D
:100CD700002020202020202020202020202020202D
:100CE700200020202020202020202020202020201D
:100CF700202000202020202020202020202020200D
:100D0700202020000120202020202020202020201B
:100D170020202020200020202020202020202020EC
:100D270020202020202000202020202020202020DC
:100D370020202020202020002020202020202020CC
:100D4700202020202020202000350E4A6E4B6A00EC
:100D57000E4FEC0CF0240E4A6E4B6A010E4FEC0C52
:100D6700F0130E4A6E4B6A020E4FEC0CF0020E4A5D
:100D77006E4B6A030E4FEC0CF0B30E4A6E4B6A04CF
:100D87000E4FEC0CF0A20E4A6E4B6A050E4FEC0CA0
:100D9700F0910E4A6E4B6A060E4FEC0CF0800E4A2D
:100DA7006E4B6A070E4FEC0CF012004B6A200E4B8D
:100DB70060E0EF06F0E2EF06F0EBEF06F04B508055
:100DC7000903EC06F0800E03EC06F0F3EF06F04B98
:100DD70050E00F800903EC06F0880E03EC06F04A9A
:100DE7006A000E09EC06F0000E09EC06F04A2A0725
:100DF7000E4A6401EF07F003EF07F0F4EF06F04B3C
:100E07002A3F0E4B640AEF07F00CEF07F0DAEF0604
:100E1700F01200000E4E6E000E4F6E000E506E0068
:100E27000E516E46A01AEF07F01CEF07F024EF07EC
:100E3700F04A504E264B504F224C5050224D5051A5
:100E470022D8904A364B364C364D36D890493248E0
:100E570032473246324650471048104910D8A43717
:100E6700EF07F039EF07F015EF07F04EC046F04FE8
:100E7700C047F050C048F051C049F0120079C04651
:100E8700F07AC047F07BC048F07CC049F02D0E4A8D
:100E97006E7F0E4B6E950E4C6E4C0E4D6E0DEC0725
:100EA700F0010E4624796E000E47207A6E000E4838
:100EB700207B6E000E49207C6E79C054F07AC055B5
:100EC700F07BC056F07CC057F0120E70EF07F0D8D9
:100ED700905732563255325432E82E6BEF07F054A2
:100EE700C052F055C053F012000F0E926E6E6A0793
:100EF7000E786E040E776E0F0E5E6E000E0FEC0608
:100F0700F0756E070E5E6E000E0FEC06F0746E93B2
:100F1700EF07F00F0E5E6E000E0FEC06F0756E75A4
:100F270050D8B499EF07F09BEF07F08DEF07F0A3C8
:100F3700EF07F0070E5E6E000E0FEC06F0746E748E
:100F470050D8B4A9EF07F0ABEF07F09DEF07F073A8
:100F57006A766A726A1200C70EF66E0C0EF76E009A
:100F67000EF86E00EE80F010EE44F00900F5CFEEBB
:100F7700FFE550E150FAE10B0EF66E0D0EF76E002D
:100F87000EF86E00EE01F010EE45F00900F5CFEE19
:100F9700FFE550E150FAE101EE00F0200EEE6AE8BD
:100FA70006FDE100EEC4F0200EEE6AE806FDE10062
:100FB700EE6EF00F0EEE6AE806FDE1000EF86E0029
:100FC700013EEF0BF080A4EBEF07F0EDEF07F0F138
:100FD700EF07F0010E726E1DEF08F080A6F6EF071F
:100FE700F0F8EF07F0FCEF07F0020E726E1DEF0846
:100FF700F080A001EF08F003EF08F007EF08F00317
:101007000E726E1DEF08F080A20CEF08F00EEF08CD
:10101700F012EF08F0040E726E1DEF08F080A817AB
:10102700EF08F019EF08F01DEF08F0010E6E6E1DC6
:10103700EF08F01200936A8A848A940D0E4A6EFCB8
:101047000EE82EFED74A2EFCD78A84820E4A6EDE21
:101057000EE82EFED74A2EFCD7200E03EC06F00D25
:101067000E4A6EFC0EE82EFED74A2EFCD7200E0342
:10107700EC06F00D0E4A6EFC0EE82EFED74A2EFC4B
:10108700D70C0E03EC06F00D0E4A6EFC0EE82EFE92
:10109700D74A2EFCD7010E03EC06F00D0E4A6EFC64
:1010A7000EE82EFED74A2EFCD7060E03EC06F00DEF
:1010B7000E4A6EFC0EE82EFED74A2EFCD7020E0310
:1010C700EC06F00D0E4A6EFC0EE82EFED74A2EFCFB
:1010D700D71200A5EF08F0C90E4A6E1F0E4B6E0619
:1010E7000E4FEC0CF0C0EF08F0D20E4A6E1F0E4BFD
:1010F7006E060E4FEC0CF0C0EF08F0DB0E4A6E1FC9
:101107000E4B6E060E4FEC0CF0C0EF08F0E40E4AE3
:101117006E1F0E4B6E060E4FEC0CF0C0EF08F0ED95
:101127000E4A6E1F0E4B6E060E4FEC0CF0C0EF080A
:10113700F0F60E4A6E1F0E4B6E060E4FEC0CF0C00B
:10114700EF08F07150000AD8B46FEF08F0010AD821
:10115700B478EF08F0030AD8B481EF08F0010AD891
:10116700B48AEF08F0070AD8B493EF08F0010AD859
:10117700B49CEF08F0C0EF08F0120028EC06F077F7
:10118700C046F04F0E476E78506FEC09F074C046BA
:10119700F0610E476E75506FEC09F06A6A6B6A6909
:1011A7006AFAEF08F06950C40FD96EDA6A6B50DE3D
:1011B70018D8A4E1EF08F0E3EF08F0F9EF08F00022
:1011C7000E6924D96EDA6A010EDA226A50DE18D85F
:1011D700A4F0EF08F0F2EF08F0F9EF08F06AC04664
:1011E700F0230E476E6B506FEC09F0692A76506951
:1011F7005CD8A001EF09F003EF09F0D6EF08F06B18
:101207002A100E6B640AEF09F00CEF09F0D3EF0810
:10121700F06A2A070E6A6413EF09F015EF09F0D296
:10122700EF08F0A8EC06F012005D6A59BE20EF093E
:10123700F01EEF09F026EF09F0586C591ED8B05987
:101247002A010E5D6E5BBE2DEF09F02BEF09F03121
:10125700EF09F05A6C5B1ED8B05B2A5A505B10D866
:10126700B438EF09F03AEF09F05EEF09F0010E5CD0
:101277006E42EF09F0D8905A365B365C2A5BAE4770
:10128700EF09F049EF09F03EEF09F05A50585C5B5F
:10129700505958D8A052EF09F054EF09F058EF0908
:1012A700F05A50585E5B50595AD8905B325A325CAC
:1012B7002E49EF09F05D50D8B464EF09F066EF09E5
:1012C700F06AEF09F0586C591ED8B0592A58C0581F
:1012D700F059C059F01200486EB2EF09F048503586
:1012E7000FD96EDA6A47C0DFFFD5EF09F0485024FF
:1012F7000FD96EDA6A47C0DFFFD5EF09F048501300
:101307000FD96EDA6A47C0DFFFD5EF09F048500200
:101317000FD96EDA6A47C0DFFFD5EF09F04850B33F
:101327000FD96EDA6A47C0DFFFD5EF09F04850A240
:101337000FD96EDA6A47C0DFFFD5EF09F048509141
:101347000FD96EDA6A47C0DFFFD5EF09F048508042
:101357000FD96EDA6A47C0DFFFD5EF09F0465000B4
:101367000AD8B472EF09F0010AD8B47AEF09F0038A
:101377000AD8B482EF09F0010AD8B48AEF09F00756
:101387000AD8B492EF09F0010AD8B49AEF09F0032A
:101397000AD8B4A2EF09F0010AD8B4AAEF09F0D528
:1013A700EF09F01200486E8A820D0EE82EFED70074
:1013B7000048C046F0463A0F0E4616010E4616463E
:1013C70046464646468A504618F70B46188A6E48E0
:1013D700C046F0050E476ED8904632472EEFEF090C
:1013E700F0010E4616463A8A504618EF0B46188A01
:1013F7006E48C046F0060E476ED8904632472E001C
:10140700EF0AF0010E4616463A46468A504618DF5E
:101417000B46188A6E466A48AE01D0462A010E4628
:1014270016463A464646468A504618BF0B46188A1D
:101437006E0D0EE82EFED700008A928A820D0EE806
:101447002EFED7000048C046F0010E461646464617
:101457004646468A504618F70B46188A6E48C046D5
:10146700F0D8904632010E4616463A8A504618EF93
:101477000B46188A6E48C046F0D8904632D8904638
:1014870032010E4616463A46468A504618DF0B4644
:10149700188A6E48C046F0D8904632D8904632D85F
:1014A700904632010E4616463A464646468A50460A
:1014B70018BF0B46188A6E0D0EE82EFED700008A5D
:1014C700920D0EE82EFED700001200C4C065F00092
:1014D700C166F078C0C4F077C000F1010E686E965F
:1014E700EF0AF06850C40FD96EDA6ADF50636E00F6
:1014F7000E6824D96EDA6A010EDA22DF50646E684C
:1015070050C40FD96EDA6A65C0DFFF000E6824D9B0
:101517006EDA6A010EDA2266C0DFFF63C065F06427
:10152700C066F0682A7650685CD8A09DEF0AF09FE5
:10153700EF0AF075EF0AF0ADEF0AF07806C0EF0A90
:10154700F0782AC0EF0AF07706C0EF0AF0772AC0D2
:10155700EF0AF07250010AD8B4A1EF0AF0030AD8D3
:10156700B4A4EF0AF0010AD8B4A7EF0AF0070AD823
:10157700B4AAEF0AF0C0EF0AF0100E7860C6EF0ABF
:10158700F0C8EF0AF0D0EF0AF0070E7764CEEF0A43
:10159700F0D0EF0AF0D2EF0AF0010E6E6E676AF430
:1015A700EF0AF06750C40FD96EDA6A7850DE18D8A0
:1015B700A4E0EF0AF0E2EF0AF0F3EF0AF0000E679B
:1015C70024D96EDA6A010EDA227750DE18D8A4EF32
:1015D700EF0AF0F1EF0AF0F3EF0AF0010E6E6E6713
:1015E7002A7650675CD8A0FBEF0AF0FDEF0AF0D52A
:1015F700EF0AF075507818D8A404EF0BF006EF0B3C
:10160700F03DEF0BF074507718D8A40DEF0BF00FE7
:10161700EF0BF03DEF0BF00F0E5E6E000E0FEC06BA
:10162700F0756E070E5E6E000E0FEC06F0746E23FB
:10163700EF0BF00F0E5E6E000E0FEC06F0756E7579
:1016470050D8B429EF0BF02BEF0BF01DEF0BF03355
:10165700EF0BF0070E5E6E000E0FEC06F0746E7463
:1016670050D8B439EF0BF03BEF0BF02DEF0BF073C5
:101677002A762A12000F0EC16E700ED36E1EEC086A
:10168700F044EC06F0D9EC06F08D0E4A6E1F0E4BB7
:101697006E000E4FEC0CF06B0E4A6E1F0E4B6E0277
:1016A7000E4FEC0CF0490E4A6E1F0E4B6E030E4F99
:1016B700EC0CF07C0E4A6E1F0E4B6E050E4FEC0CB9
:1016C700F06DEC08F09AEF0BF080A06DEF0BF06F68
:1016D700EF0BF081EF0BF0050E716075EF0BF077F4
:1016E700EF0BF081EF0BF0712A80B07DEF0BF07FED
:1016F700EF0BF078EF0BF064EF0BF080A286EF0BA7
:10170700F088EF0BF09AEF0BF07150D8B48EEF0B17
:10171700F090EF0BF09AEF0BF0710680B296EF0B9B
:10172700F098EF0BF091EF0BF064EF0BF080AA9FAE
:10173700EF0BF0A1EF0BF068EF0BF078EC07F00E72
:10174700EF0CF0C1EC08F0E6EC07F069EC0AF0F3F7
:10175700EF0BF00EEF0CF0020E6D6E040E6C6EBA0E
:101767000EE82EFED76C2EFCD76D2EFAD700D00EC2
:10177700EF0CF0030E6D6E080E6C6E770EE82EFE02
:10178700D76C2EFCD76D2EFAD700000EEF0CF004A5
:101797000E6D6E0C0E6C6E340EE82EFED76C2EFCA2
:1017A700D76D2EFAD70EEF0CF0050E6D6E0F0E6C7F
:1017B7006EF10EE82EFED76C2EFCD76D2EFAD700F1
:1017C700000EEF0CF0060E6D6E130E6C6EAE0EE88B
:1017D7002EFED76C2EFCD76D2EFAD70EEF0CF071BC
:1017E70050000AD8B4ADEF0BF0010AD8B4AFEF0B35
:1017F700F0030AD8B4BDEF0BF0010AD8B4CBEF0B56
:10180700F0070AD8B4D8EF0BF0010AD8B4E6EF0B0B
:10181700F00EEF0CF06E50D8B414EF0CF016EF0C7E
:10182700F0A5EF0BF0D9EC06F09E0E4A6E1F0E4B9B
:101837006E010E4FEC0CF05A0E4A6E1F0E4B6E02E5
:101847000E4FEC0CF09E0E4A6E1F0E4B6E030E4FA2
:10185700EC0CF0AE0E4A6E1F0E4B6E050E4FEC0CE5
:10186700F0BD0E4A6E1F0E4B6E060E4FEC0CF04687
:10187700EF0CF080AA42EF0CF044EF0CF046EF0CAF
:10188700F0A1EF0BF080A84BEF0CF04DEF0CF03D03
:10189700EF0CF000EF00F0616E010E536E5E6A937D
:1018A700EF0EF04AC0F6FF4BC0F7FFF86A010EF7DC
:1018B7006403D00800F55005D0F6CFE9FFF7CFEA6B
:1018C700FFEF50626E4A4A4B2A6250D8A46EEF0C63
:1018D700F070EF0CF073EF0CF0200E626E536A4A53
:1018E700C0F6FF4BC0F7FFF86A010EF76403D00894
:1018F70000F55005D0F6CFE9FFF7CFEAFFEF5063C9
:101907006E4A4A4B2A6350D8A48CEF0CF08EEF0C2A
:10191700F091EF0CF0200E636E536A510E626497DC
:10192700EF0CF099EF0CF0A1EF0CF0AE0E62244F24
:101937006E506AFF0E5022A7EF0CF0E00E62244FA4
:101947006E506AFF0E50224FC066F0510E6364AFAF
:10195700EF0CF0B1EF0CF0B9EF0CF0AE0E632451C1
:101967006E526AFF0E5222BFEF0CF0E00E63245155
:101977006E526AFF0E522251C067F0520E6260C764
:10198700EF0CF0C9EF0CF012EF0DF06650050D6982
:101997000EF324F66E1D0EF420F76E0800F5CF58EF
:1019A700F06650050D010EF326000EF422690EF3C2
:1019B70024F66E1D0EF420F76E0800F5CF57F0667B
:1019C70050050D020EF326000EF422690EF324F6DD
:1019D7006E1D0EF420F76E0800F5CF56F066500521
:1019E7000D030EF326000EF422690EF324F66E1D86
:1019F7000EF420F76E0800F5CF55F06650050D047C
:101A07000EF326000EF422690EF324F66E1D0EF473
:101A170020F76E0800F5CF54F059EF0DF06650052A
:101A27000D630EF324F66E1E0EF420F76E0800F514
:101A3700CF58F06650050D010EF326000EF4226311
:101A47000EF324F66E1E0EF420F76E0800F5CF573E
:101A5700F06650050D020EF326000EF422630EF316
:101A670024F66E1E0EF420F76E0800F5CF56F066CA
:101A770050050D030EF326000EF422630EF324F631
:101A87006E1E0EF420F76E0800F5CF55F066500570
:101A97000D040EF326000EF422630EF324F66E1ED9
:101AA7000EF420F76E0800F5CF54F0520E63605F16
:101AB700EF0DF061EF0DF0AAEF0DF06750050D691E
:101AC7000EF324F66E1D0EF420F76E0800F5CF5DB9
:101AD700F06750050D010EF326000EF422690EF390
:101AE70024F66E1D0EF420F76E0800F5CF5CF06744
:101AF70050050D020EF326000EF422690EF324F6AC
:101B07006E1D0EF420F76E0800F5CF5BF0675005E9
:101B17000D030EF326000EF422690EF324F66E1D54
:101B27000EF420F76E0800F5CF5AF06750050D0444
:101B37000EF326000EF422690EF324F66E1D0EF442
:101B470020F76E0800F5CF59F0F1EF0DF06750055B
:101B57000D630EF324F66E1E0EF420F76E0800F5E3
:101B6700CF5DF06750050D010EF326000EF42263DA
:101B77000EF324F66E1E0EF420F76E0800F5CF5C08
:101B8700F06750050D020EF326000EF422630EF3E4
:101B970024F66E1E0EF420F76E0800F5CF5BF06793
:101BA70050050D030EF326000EF422630EF324F600
:101BB7006E1E0EF420F76E0800F5CF5AF067500539
:101BC7000D040EF326000EF422630EF324F66E1EA8
:101BD7000EF420F76E0800F5CF59F0646A040E6121
:101BE70060F8EF0DF0FAEF0DF007EF0EF061500817
:101BF7000DF3506424800903EC06F05E508009035E
:101C0700EC06F013EF0EF06150080DF3506424E07A
:101C17000F800903EC06F05E50880903EC06F05FBD
:101C27006A656A6550540FD96EDA6ADF504C6E6484
:101C3700C04DF0010E4E6E4D2A24EF0EF0D8904E97
:101C4700364D2E22EF0EF04E504C140009D8B42F0B
:101C5700EF0EF031EF0EF042EF0EF065C04CF003DF
:101C67000E4C26010E4D6E4C2A3CEF0EF0D8904DCF
:101C7700364C2E3AEF0EF04D505F105F6E652A041A
:101C87000E656449EF0EF04BEF0EF015EF0EF060A6
:101C97006A656A6550590FD96EDA6ADF504C6E640F
:101CA700C04DF0010E4E6E4D2A5CEF0EF0D8904EEF
:101CB700364D2E5AEF0EF04E504C140009D8B4672B
:101CC700EF0EF069EF0EF07AEF0EF065C04CF003FF
:101CD7000E4C26010E4D6E4C2A74EF0EF0D8904D27
:101CE700364C2E72EF0EF04D506010606E652A0470
:101CF7000E656481EF0EF083EF0EF04DEF0EF05F8F
:101D07005009EC06F0605009EC06F0642A070E64EF
:101D17006490EF0EF092EF0EF0F2EF0DF05E2A4AAC
:101D2700C0F6FF4BC0F7FFF86A010EF76403D0084F
:101D370000F55005D0F6CFE9FFF7CFEAFFEF5000E7
:101D470009D8B4A9EF0EF0ABEF0EF0B3EF0EF053D6
:101D570050D8A4B1EF0EF0B3EF0EF055EF0CF01220
:101D67000000000000000000005F000000070007FF
:101D770000147F147F14242A7F2A12231308646215
:101D870036495522500005030000001C224100007F
:101D970041221C0014083E081408083E0808005099
:101DA70030000008080808080060600000201008DC
:101DB70004023E5149453E00427F4000426151497D
:101DC700462141454B311814127F102745454539A7
:101DD7003C4A4949300171090503364949493606E4
:101DE7004949291E003636000000563600000814FF
:101DF7002241001414141414004122140802015142
:101E07000906324979413E7E1111117E7F494949C0
:101E1700363E414141227F4141221C7F4949494188
:101E27007F090909013E4149497A7F0808087F006F
:101E3700417F41002040413F017F081422417F40FC
:101E47004040407F020C027F7F0408107F3E4141E3
:101E5700413E7F090909063E4151215E7F09192943
:101E670046464949493101017F01013F4040403F12
:101E77001F2040201F3F4038403F6314081463076A
:101E8700087008076151494543007F41410002043A
:101E97000810200041417F00040201020440404035
:101EA7004040000102040020545454787F484444C1
:101EB700383844444420384444487F3854545418EC
:101EC700087E0901020C5252523E7F080404780032
:101ED700447D40002040443D007F102844000041DD
:101EE7007F40007C041804787C0804047838444454
:101EF70044387C14141408081414187C7C0804044F
:101F0700084854545420043F4440203C4040207C1F
:101F17001C2040201C3C4030403C44281028440CE6
:101F27005050503C4464544C440008364100000073
:101F37007F00000041360800100808100878464165
:101F470046782020202020414E5520202020202088
:101F57002020002020202047414D45204F56455244
:101F67002020200042593A202053454241535449EA
:101F7700414E2020005374617274202D2053656CEC
:101F87006563742020002A2A2A2A2A534E414B458A
:101F97002A2A2A2A2A2A002A2A2A2A2A2A2A2A2AC4
:101FA7002A2A2A2A2A2A005265747279202D205358
:101FB700656C656374004D656E75202D20457869E5
:101FC700740053706565643A20300053706565642A
:101FD7003A20310053706565643A203200537065CA
:101FE70065643A20330053706565643A20340053C2
:091FF700706565643A20350000B4
:020000040030CA
:0E000000FF08191EFF8381FF03C003E00340C9
:00000001FF
